{
  "contractName": "ChainList",
  "abi": [
    {
      "constant": true,
      "inputs": [],
      "name": "getNumberOfObjects",
      "outputs": [
        {
          "name": "",
          "type": "uint256"
        }
      ],
      "payable": false,
      "stateMutability": "view",
      "type": "function"
    },
    {
      "constant": false,
      "inputs": [],
      "name": "kill",
      "outputs": [],
      "payable": false,
      "stateMutability": "nonpayable",
      "type": "function"
    },
    {
      "constant": true,
      "inputs": [],
      "name": "getObjectsForSale",
      "outputs": [
        {
          "name": "",
          "type": "uint256[]"
        }
      ],
      "payable": false,
      "stateMutability": "view",
      "type": "function"
    },
    {
      "constant": false,
      "inputs": [
        {
          "name": "_id",
          "type": "uint256"
        }
      ],
      "name": "buyObject",
      "outputs": [],
      "payable": true,
      "stateMutability": "payable",
      "type": "function"
    },
    {
      "constant": true,
      "inputs": [
        {
          "name": "",
          "type": "uint256"
        }
      ],
      "name": "objects",
      "outputs": [
        {
          "name": "id",
          "type": "uint256"
        },
        {
          "name": "seller",
          "type": "address"
        },
        {
          "name": "buyer",
          "type": "address"
        },
        {
          "name": "name",
          "type": "string"
        },
        {
          "name": "description",
          "type": "string"
        },
        {
          "name": "price",
          "type": "uint256"
        }
      ],
      "payable": false,
      "stateMutability": "view",
      "type": "function"
    },
    {
      "constant": false,
      "inputs": [
        {
          "name": "_name",
          "type": "string"
        },
        {
          "name": "_description",
          "type": "string"
        },
        {
          "name": "_price",
          "type": "uint256"
        }
      ],
      "name": "sellObject",
      "outputs": [],
      "payable": false,
      "stateMutability": "nonpayable",
      "type": "function"
    },
    {
      "anonymous": false,
      "inputs": [
        {
          "indexed": true,
          "name": "_id",
          "type": "uint256"
        },
        {
          "indexed": true,
          "name": "_seller",
          "type": "address"
        },
        {
          "indexed": false,
          "name": "_name",
          "type": "string"
        },
        {
          "indexed": false,
          "name": "_price",
          "type": "uint256"
        }
      ],
      "name": "sellObjectEvent",
      "type": "event"
    },
    {
      "anonymous": false,
      "inputs": [
        {
          "indexed": true,
          "name": "_id",
          "type": "uint256"
        },
        {
          "indexed": true,
          "name": "_seller",
          "type": "address"
        },
        {
          "indexed": true,
          "name": "_buyer",
          "type": "address"
        },
        {
          "indexed": false,
          "name": "_name",
          "type": "string"
        },
        {
          "indexed": false,
          "name": "_price",
          "type": "uint256"
        }
      ],
      "name": "buyObjectEvent",
      "type": "event"
    }
  ],
  "bytecode": "0x6060604052336000806101000a81548173ffffffffffffffffffffffffffffffffffffffff021916908373ffffffffffffffffffffffffffffffffffffffff160217905550610c46806100536000396000f300606060405260043610610078576000357c0100000000000000000000000000000000000000000000000000000000900463ffffffff16806335b450db1461007d57806341c0e1b5146100a657806366445e4c146100bb57806380b5c1f414610125578063ed1758501461013d578063f0a73903146102f3575b600080fd5b341561008857600080fd5b61009061039c565b6040518082815260200191505060405180910390f35b34156100b157600080fd5b6100b96103a6565b005b34156100c657600080fd5b6100ce61043b565b6040518080602001828103825283818151815260200191508051906020019060200280838360005b838110156101115780820151818401526020810190506100f6565b505050509050019250505060405180910390f35b61013b60048080359060200190919050506105d9565b005b341561014857600080fd5b61015e60048080359060200190919050506108c1565b604051808781526020018673ffffffffffffffffffffffffffffffffffffffff1673ffffffffffffffffffffffffffffffffffffffff1681526020018573ffffffffffffffffffffffffffffffffffffffff1673ffffffffffffffffffffffffffffffffffffffff168152602001806020018060200184815260200183810383528681815460018160011615610100020316600290048152602001915080546001816001161561010002031660029004801561025b5780601f106102305761010080835404028352916020019161025b565b820191906000526020600020905b81548152906001019060200180831161023e57829003601f168201915b50508381038252858181546001816001161561010002031660029004815260200191508054600181600116156101000203166002900480156102de5780601f106102b3576101008083540402835291602001916102de565b820191906000526020600020905b8154815290600101906020018083116102c157829003601f168201915b50509850505050505050505060405180910390f35b34156102fe57600080fd5b61039a600480803590602001908201803590602001908080601f0160208091040260200160405190810160405280939291908181526020018383808284378201915050505050509190803590602001908201803590602001908080601f0160208091040260200160405190810160405280939291908181526020018383808284378201915050505050509190803590602001909190505061093b565b005b6000600254905090565b6000809054906101000a900473ffffffffffffffffffffffffffffffffffffffff1673ffffffffffffffffffffffffffffffffffffffff163373ffffffffffffffffffffffffffffffffffffffff1614151561040157600080fd5b6000809054906101000a900473ffffffffffffffffffffffffffffffffffffffff1673ffffffffffffffffffffffffffffffffffffffff16ff5b610443610b61565b61044b610b61565b600080610456610b61565b60008060025414156104895760006040518059106104715750595b908082528060200260200182016040525095506105d1565b6002546040518059106104995750595b9080825280602002602001820160405250945060009350600192505b6002548311151561055e5760006001600085815260200190815260200160002060020160009054906101000a900473ffffffffffffffffffffffffffffffffffffffff1673ffffffffffffffffffffffffffffffffffffffff161415610551576001600084815260200190815260200160002060000154858581518110151561053a57fe5b906020019060200201818152505083806001019450505b82806001019350506104b5565b8360405180591061056c5750595b90808252806020026020018201604052509150600090505b838110156105cd57848181518110151561059a57fe5b9060200190602002015182828151811015156105b257fe5b90602001906020020181815250508080600101915050610584565b8195505b505050505090565b6000806002541115156105eb57600080fd5b6000821180156105fd57506002548211155b151561060857600080fd5b60016000838152602001908152602001600020905060008160020160009054906101000a900473ffffffffffffffffffffffffffffffffffffffff1673ffffffffffffffffffffffffffffffffffffffff1614151561066657600080fd5b3373ffffffffffffffffffffffffffffffffffffffff168160010160009054906101000a900473ffffffffffffffffffffffffffffffffffffffff1673ffffffffffffffffffffffffffffffffffffffff16141515156106c557600080fd5b3481600501541415156106d757600080fd5b338160020160006101000a81548173ffffffffffffffffffffffffffffffffffffffff021916908373ffffffffffffffffffffffffffffffffffffffff1602179055508060010160009054906101000a900473ffffffffffffffffffffffffffffffffffffffff1673ffffffffffffffffffffffffffffffffffffffff166108fc349081150290604051600060405180830381858888f19350505050151561077e57600080fd5b8060020160009054906101000a900473ffffffffffffffffffffffffffffffffffffffff1673ffffffffffffffffffffffffffffffffffffffff168160010160009054906101000a900473ffffffffffffffffffffffffffffffffffffffff1673ffffffffffffffffffffffffffffffffffffffff16837fd9674f648bdcc33def844c802353e83beded711ffada9dc63425d9ecc3397ddd84600301856005015460405180806020018381526020018281038252848181546001816001161561010002031660029004815260200191508054600181600116156101000203166002900480156108ae5780601f10610883576101008083540402835291602001916108ae565b820191906000526020600020905b81548152906001019060200180831161089157829003601f168201915b5050935050505060405180910390a45050565b60016020528060005260406000206000915090508060000154908060010160009054906101000a900473ffffffffffffffffffffffffffffffffffffffff16908060020160009054906101000a900473ffffffffffffffffffffffffffffffffffffffff1690806003019080600401908060050154905086565b60026000815480929190600101919050555060c06040519081016040528060025481526020013373ffffffffffffffffffffffffffffffffffffffff168152602001600073ffffffffffffffffffffffffffffffffffffffff168152602001848152602001838152602001828152506001600060025481526020019081526020016000206000820151816000015560208201518160010160006101000a81548173ffffffffffffffffffffffffffffffffffffffff021916908373ffffffffffffffffffffffffffffffffffffffff16021790555060408201518160020160006101000a81548173ffffffffffffffffffffffffffffffffffffffff021916908373ffffffffffffffffffffffffffffffffffffffff1602179055506060820151816003019080519060200190610a73929190610b75565b506080820151816004019080519060200190610a90929190610b75565b5060a082015181600501559050503373ffffffffffffffffffffffffffffffffffffffff166002547fa9f038c2ded51a3f1d71b1e374611d2ad839632a89b4cb701018a5096ea5776b85846040518080602001838152602001828103825284818151815260200191508051906020019080838360005b83811015610b21578082015181840152602081019050610b06565b50505050905090810190601f168015610b4e5780820380516001836020036101000a031916815260200191505b50935050505060405180910390a3505050565b602060405190810160405280600081525090565b828054600181600116156101000203166002900490600052602060002090601f016020900481019282601f10610bb657805160ff1916838001178555610be4565b82800160010185558215610be4579182015b82811115610be3578251825591602001919060010190610bc8565b5b509050610bf19190610bf5565b5090565b610c1791905b80821115610c13576000816000905550600101610bfb565b5090565b905600a165627a7a72305820609727d723c6cf37871fc561892e5d5a36f401af8b0d7174d676a4d95c51b80d0029",
  "source": "pragma solidity ^ 0.4.11;\n\nimport \"./Owned.sol\";\n\ncontract ChainList is Owned {\n    \n    struct Object {\n        uint id; //this will be objectsCounter\n        address seller;\n        address buyer;\n        string name;\n        string description;\n        uint256 price;\n    }\n\n    //public automatically creates getter\n        //doesn't return struct, returns each value of struct by itself\n    mapping(uint => Object) public objects; \n    uint objectsCounter; //used to keep track of size of mapping and whick keys should have value\n\n    //EVENTS\n    event sellObjectEvent(uint indexed _id, address indexed _seller, string _name, uint256 _price);\n    //indexed buyer and seller so it is possible for them to only watch events that pertain to them\n    event buyObjectEvent(uint indexed _id, address indexed _seller, address indexed _buyer, string _name, uint256 _price);\n\n    function sellObject(string _name, string _description, uint256 _price) public {\n        \n        objectsCounter++;\n\n        objects[objectsCounter] = Object (    // <- same as struct\n            objectsCounter,\n            msg.sender,\n            0x0,\n            _name,\n            _description,\n            _price\n        );\n\n        sellObjectEvent(objectsCounter, msg.sender, _name, _price);\n    }\n\n    function getNumberOfObjects() public constant returns (uint) {\n        return objectsCounter;\n    }\n\n    //returns all object IDs \n        //can't return struct \n    function getObjectsForSale() public constant returns (uint[]) {\n        \n        //return empty array if no objects\n        if (objectsCounter == 0) {\n            return new uint[](0);\n        }\n\n        //prepare output arrays\n            //local arrays must have fixed size\n        uint[] memory objectIds = new uint[](objectsCounter);\n\n        uint numberOfObjectsForSale = 0;\n\n        //iterate over objects\n        for (uint i = 1; i <= objectsCounter; i++) {\n            //keep only the ID for the articles not sold\n            if (objects[i].buyer == 0x0) {\n                objectIds[numberOfObjectsForSale] = objects[i].id;\n                numberOfObjectsForSale++;\n            }\n        }\n\n        //copy the objectIds array into the smaller forSale array\n        uint[] memory forSale = new uint[](numberOfObjectsForSale);\n\n        for (uint j = 0; j < numberOfObjectsForSale; j++) {\n            forSale[j] = objectIds[j];\n        }\n\n        return(forSale);\n    }\n\n    //payable means it can receive ether from person who calls it\n        //don't need to check for seller because only way to add an article is to sell it\n    function buyObject(uint _id) payable public {   \n        //check whether there is at least one object\n        require(objectsCounter > 0);\n\n        //check whether the article exists\n        require(_id > 0 && _id <= objectsCounter);\n\n        //retrieve the article\n            //storage ensure it is saved in the state\n        Object storage object = objects[_id];\n\n        //check that object hasn't already sold\n        require(object.buyer == 0x0);\n\n        //seller can't buy own object\n        require(object.seller != msg.sender);\n\n        //check that value sent equals the object price\n        require(object.price == msg.value);\n\n        //get buyer info\n        object.buyer = msg.sender;\n\n        //transfer money to seller\n        object.seller.transfer(msg.value);\n\n        buyObjectEvent(_id, object.seller, object.buyer, object.name, object.price);\n    }\n\n    function kill() onlyOwner {\n        selfdestruct(owner);\n    }\n}",
  "sourcePath": "/Users/ConnorV/Desktop/Coding Projects/Ethereum/Eth Solidity Udemy Class/ChainSkills/training/chainlist/contracts/ChainList.sol",
  "compiler": {
    "name": "solc",
    "version": "0.4.18+commit.9cf6e910.Emscripten.clang"
  },
  "schemaVersion": "1.0.1",
  "updatedAt": "2018-01-16T04:29:52.499Z"
}